:1000000045C0000060C000005EC000005CC0000091
:100010005AC0000058C0000056C0000054C0000084
:1000200052C0000050C000004EC000004CC0000094
:100030004AC0000048C0000046C0000044C00000A4
:1000400042C0000040C000003EC000003CC00000B4
:100050003AC0000038C0000036C0000034C00000C4
:1000600032C0000030C000002EC000002CC00000D4
:100070002AC0000028C0000026C0000024C00000E4
:1000800022C0000020C000001EC0000011241FBEBE
:10009000CFEFD0E1DEBFCDBF11E0A0E0B1E0E8E0FE
:1000A000F2E000E00BBF02C007900D92AE31B10745
:1000B000D9F721E0AEE1B1E001C01D92AF31B20746
:1000C000E1F799D09FC09CCF80E887BB18BA08950C
:1000D0008FEF8ABBE0911E01F0E0E050FF4F80817E
:1000E0008BBB089580936200089583B18F7B83B9A1
:1000F000089583B18F7783B983B1806883B983B161
:100100008F7783B98FEF98E10197F1F700C0000076
:100110000895CF93C82F83B18F7D83B9E6DF8C2FED
:10012000E1DFE7DFCF9108958FEF8093610082B127
:10013000806282B982B1806482B982B1806882B9FA
:100140002FEF89EF90E0215080409040E1F700C010
:10015000000088E3DEDF8FE19EE40197F1F700C045
:10016000000088E3D6DF8FE19EE40197F1F700C03D
:10017000000088E3CEDF88E3CCDF88E0CADF81E0DF
:10018000C8DF8CE0C6DF86E0C4CF08958FEF84BB64
:1001900085BB08951092900089E189B98BB1826086
:1001A0008BB98AB188618AB9789408955D9BFECF36
:1001B0008CB908955F9BFECF8CB108950F931F9368
:1001C000CF93DF938C01C0E0D0E002C0EFDF219637
:1001D000F801EC0FFD1F80818111F8CF8AE0E6DF86
:1001E000DF91CF911F910F910895D4DFCFDF70DFA2
:1001F0006BDF9ACF0895F9DF8AE091E0DFDFDADF85
:08020000D5DFFDCFF894FFCF1C
:100208003F065B4F666D7D277F6748432D3035205D
:0E02180054657374205374617274200D0A00D3
:00000001FF
